:020000040800F2
:1000000000000220A9A40008D91B0008DD1B00087D
:10001000E11B0008E51B0008E91B000800000000C8
:10002000000000000000000000000000ED1B0008C0
:10003000F11B000800000000F51B0008F91B000878
:10004000FDA40008FDA40008FDA40008FDA400080C
:10005000FDA40008FDA40008FDA40008FDA40008FC
:10006000FDA40008FDA40008FDA40008FD1B000875
:10007000091C0008151C0008211C00082D1C000884
:10008000391C0008451C0008FDA40008FDA4000858
:10009000FDA40008FDA40008FDA40008511C0008F0
:1000A000FDA40008FDA40008FDA40008FDA40008AC
:1000B000FDA40008FDA40008651C0008FDA40008BC
:1000C000FDA40008FDA40008FDA40008711C0008A0
:1000D000FDA400087D1C0008FDA40008FDA4000884
:1000E000891C0008FDA4000800000000FDA4000811
:1000F000FDA40008FDA40008FDA40008FDA400085C
:10010000FDA40008FDA40008FDA40008FDA400084B
:10011000FDA40008911C00089D1C0008FDA4000817
:10012000FDA40008FDA40008FDA40008FDA400082B
:10013000FDA40008FDA40008FDA40008A91C0008F7
:1001400000000000000000000000000000000000AF
:10015000FDA40008FDA40008FDA40008FDA40008FB
:10016000FDA40008FDA40008FDA40008FDA40008EB
:10017000FDA40008FDA40008FDA400080000000084
:10018000FDA40008FDA40008C51C0008FDA400088B
:10019000FDA40008FDA40008FDA40008FDA40008BB
:1001A000FDA40008FDA40008FDA400080000000054
:1001B000FDA40008FDA40008FDA40008FDA400089B
:1001C000FDA40008FDA400080000000000000000DD
:1001D0000000000000000000FDA400080000000076
:1001E000000000000000000000000000000000000F
:1001F0000000000000000000FDA40008FDA40008AD
:10020000FDA40008FDA4000800000000FDA40008F3
:10021000FDA40008FDA40008FDA40008FDA400083A
:10022000FDA4000800000000FDA40008000000007C
:10023000FDA40008FDA4000800000000FDA40008C3
:10024000FDA40008FDA40008FDA40008FDA400080A
:10025000FDA40008FDA40008FDA40008FDA40008FA
:10026000FDA40008FDA40008FDA40008FDA40008EA
:10027000FDA40008FDA40008FDA400080000000083
:10028000FDA40008FDA40008FDA40008FDA40008CA
:1002900000000000FDA40008FDA40008000000000C
:1002A00000000000FDA40008FDA40008FDA4000853
:1002B000D11C0008FDA40008FDA40008DD1C0008F6
:0C02C000E91C0008F51C0008FDA4000863
:1002D000830730B547D0541E002A3ED0CAB2034629
:1002E00001E0013C39D303F8012B9D07F9D1032C20
:1002F0002CD9CDB205EB05250F2C05EB054535D9DD
:10030000A4F1100222F00F0C03F1100EE6444FEAA4
:10031000121C1A46156055609560D5601032724502
:10032000F8D10CF1010214F00C0F03EB021204F0EF
:100330000F0C13D0ACF1040323F003030433134474
:1003400042F8045B9A42FBD10CF003042CB1C9B211
:100350001C4403F8011B9C42FBD130BD644613468C
:10036000002CF4D1F9E703461446C0E71A46A44628
:10037000E0E700BF70B50F4B0F4DAB42A3EB050696
:1003800007D0B610002455F8043B01349847A64224
:10039000F9D80AF005FA094D094B5E1BAB424FEA4A
:1003A000A60606D0002455F8043B01349847A6421F
:1003B000F9D870BD7CA800087CA800087CA80008BB
:1003C00080A80008844641EA000313F003036DD1BE
:1003D000403A41D351F8043B40F8043B51F8043B08
:1003E00040F8043B51F8043B40F8043B51F8043B0F
:1003F00040F8043B51F8043B40F8043B51F8043BFF
:1004000040F8043B51F8043B40F8043B51F8043BEE
:1004100040F8043B51F8043B40F8043B51F8043BDE
:1004200040F8043B51F8043B40F8043B51F8043BCE
:1004300040F8043B51F8043B40F8043B51F8043BBE
:1004400040F8043B51F8043B40F8043B51F8043BAE
:1004500040F8043B403ABDD2303211D351F8043B4E
:1004600040F8043B51F8043B40F8043B51F8043B8E
:1004700040F8043B51F8043B40F8043B103AEDD2FD
:100480000C3205D351F8043B40F8043B043AF9D24E
:10049000043208D0D2071CBF11F8013B00F8013B21
:1004A00001D30B8803806046704700BF082A13D32E
:1004B0008B078DD010F003038AD0C3F10403D21A46
:1004C000DB071CBF11F8013B00F8013B80D331F87A
:1004D000023B20F8023B7BE7043AD9D3013A11F8FA
:1004E000013B00F8013BF9D20B7803704B78437065
:1004F0008B7883706046704753B94AB9002908BFAA
:1005000000281CBF4FF0FF314FF0FF3000F00CB857
:10051000ADF1080C6DE904CE09F0F1FFDDF804E05F
:10052000DDE9022304B07047704700BF10B5054CE9
:10053000237833B9044B13B10448AFF3008001238F
:10054000237010BD4000002000000000A0A700089C
:1005500008B5034B1BB103490348AFF3008008BD46
:100560000000000044000020A0A7000800000000D8
:1005700010B59EB04C2200210AA8FFF7A9FE202248
:10058000002102A8FFF7A4FE022005F08DF9244AFD
:1005900000230193936923F440439361936903F427
:1005A00040430193019B93699B04FCD501210223E5
:1005B000002240240D910AA8179104211593189147
:1005C0000C2119931B921A911C920E949FED127B91
:1005D000CDE9133328238DED0A7B169302F084F8BE
:1005E000034608B172B6FEE70493082303213F22B5
:1005F00005934FF4806302A8CDE90221CDE90644BA
:10060000CDE9083402F0A4FB08B172B6FEE71EB0D3
:1006100010BD00BFAFF30080030000000000010028
:100620000048025800B5AFB0B022002102A8FFF781
:100630004FFE4FF0004200236846CDE9002302F050
:1006400091FE08B172B6FEE72FB05DF804FB00BF63
:100650002DE9F04F2DED068B8FB04FF4004405F0DF
:1006600047F9AE4BAE484FF48062AE490C93ADF8FB
:100670002C20ADF834409FEDAC9ADFEDAC8ADFF86A
:10068000D082AB4FAB4EAC4DDFF8C892CDE909013B
:10069000FFF76EFFFFF7C6FF00F074F900F04CFAA9
:1006A00000F066FD01F024F800F094FF00F090FAED
:1006B00000F0EEFA00F044FF00F09AFD00F0B6FC06
:1006C00000F0CCFF00F0C8FD00F042FB00F000FE9F
:1006D00000F03EFE01224FF48041984803F0C4FF31
:1006E00001224FF40051954803F0BEFF214601223C
:1006F000924803F0B9FF924C09F0AAFB09F0FCFB09
:10070000904B012290481A7001F006FC09A809F0EC
:10071000E7FA09A809F00AFA98ED031AD8ED020AD7
:1007200005A898ED010A09F0EFFB002009F0F4FCA0
:1007300002460120019209F0EFFC8346022009F0F5
:10074000EBFC8246032009F0E7FC019A002A00F046
:10075000E280B2F90230F5EE007A00EE903AF8EE5F
:10076000E00A60EEA80A60EEA70ABBF1000F00F0F5
:10077000CF80BBF90230F5EE007A0AEE903AF8EE3F
:10078000EAAA6AEEA8AA6AEEA7AABAF1000F00F0D8
:10079000B780BAF90230F5EE007A0AEE103AB8EEF8
:1007A000CAAA2AEE28AA2AEE27AA002800F0AD80BD
:1007B000B0F90230F5EE007A09EE903AF8EEE99AD7
:1007C00069EEA89A69EEA79AB7EE008A9DED050A30
:1007D000002009F0ABFC94ED007AD4ED007AF0EE45
:1007E000406A97ED006AF0EE6A0A78EE677A9DED4E
:1007F000060A012067EE867AE6EE877AC7ED007A70
:1008000009F094FC94ED007AF0EE406AD4ED007AA1
:10081000F0EE4A0A96ED006A022078EE677A9DEDC6
:10082000070A67EE867AE6EE877AC6ED007A09F067
:100830007DFC94ED007AF0EE406AD4ED007AF0EEA3
:10084000690A95ED006A032078EE677A9DED080A43
:1008500067EE867AE6EE877AC5ED007A09F066FCE7
:1008600094ED006A0021D4ED007AD9ED005A38EEFB
:10087000678AD7ED006A95ED007AFDEEE66AD6ED5F
:10088000007A28EE258ABDEEC77A16EE900AFDEEB4
:10089000E77AA0EE068A17EE103A0FFA80FE40F3D0
:1008A000072017EE902A43F3072C1BB260F30701D1
:1008B0000020FDEEC87A6CF307006EF30F2142F3BF
:1008C000072C63F30F2012B217EE903A6CF3174126
:1008D00089ED008A43F3072C62F31F611AB20823E3
:1008E0006CF3174003914FF4007162F31F6003AA89
:1008F0000490164809F0D4FA012005F03BF808E707
:10090000B0EE49AA00287FF453AFF0EE499A5BE7B6
:10091000F0EE49AA39E7F0EE490A26E7001002583E
:1009200038030020000C0258000000007077D63D0C
:1009300068000020640000206000002000080258C9
:10094000100000206C0000206004002074000020D3
:10095000300C00205C000020034B02689A4200D05B
:10096000704709F0A1BC00BF00500040034B026873
:100970009A4200D0704704F0EBBF00BF0010004067
:1009800072B6FEE72DE9F043654B8DB00024654E4D
:10099000654F4FF460410A943046DFF89491012589
:1009A000DFF89081CDE90644CDE90844D3F8E02092
:1009B00042F01002C3F8E020D3F8E02002F0100269
:1009C0000092009AD3F8E02042F00402C3F8E0203D
:1009D000D3F8E02002F004020192019AD3F8E0205B
:1009E00042F08002C3F8E020D3F8E02002F0800259
:1009F0000292029AD3F8E02042F00102C3F8E0200C
:100A0000D3F8E02002F001020392039AD3F8E02029
:100A100042F00202C3F8E020D3F8E02002F0020224
:100A20000492049AD3F8E02042F00802C3F8E020D0
:100A30002246D3F8E03003F008030593059B03F04A
:100A400013FE224638464FF4085103F00DFE384697
:100A500001224FF4004103F007FE224648464FF4BE
:100A6000806103F001FE4FF4604306A93046CDE9F2
:100A70000635CDE9084403F0BDFC20224FF40413F1
:100A800006A940460894CDE9062303F0B3FC4FF4D1
:100A90002243384606A906930994CDE9075403F08A
:100AA000A9FC4FF48063484606A906930223CDE9CA
:100AB0000754099303F09EFC4FF480724FF488139F
:100AC000304606A90894CDE9062303F093FC4FF4C1
:100AD00000424FF44413404606A90894CDE906238A
:100AE00003F088FC00234FF4007206A90F48089415
:100AF000CDE9062303F07EFC22462146172001F0B3
:100B000037FD172001F070FD22462946282001F00C
:100B10002FFD282001F068FD0DB0BDE8F08300BF77
:100B200000440258000802580010025800040258FD
:100B3000000C025800000258244B00220B201146E2
:100B400010B5D3F8D84082B044F00104C3F8D840BF
:100B5000D3F8D83003F001030193019B01F008FDA5
:100B60000B2001F041FD00220C20114601F000FD98
:100B70000C2001F039FD00220D20114601F0F8FC97
:100B80000D2001F031FD00220E20114601F0F0FC95
:100B90000E2001F029FD00220F20114601F0E8FC93
:100BA0000F2001F021FD00221020114601F0E0FC91
:100BB000102001F019FD00221120114601F0D8FC8F
:100BC000112002B0BDE8104001F00EBD00440258F3
:100BD00030B52D480124002304220A218474846343
:100BE00002242A4D8BB0038205608161016281621B
:100BF000C0E90F32C0E91123C0E91323C0E915236E
:100C0000C0E91932C0E902330322C0E90C13C0E97C
:100C100017341D2342614262C361C36204F01EFFA8
:100C200028BB0221002301254FF400744FF4FE621B
:100C30000491154802A90792CDE90233CDE9055484
:100C400005F052F9E8B9002402220F481146234664
:100C5000009405F08DF9224601210B4805F0C2FAF7
:100C600060B9094805F0A2F920B90BB030BDFFF713
:100C700087FED6E7FFF784FE0BB030BDFFF780FE9E
:100C8000EFE7FFF77DFEDEE74C02002000A000400A
:100C900030B52D480124002304220A218474846382
:100CA00002242A4D8BB0038205608161016281625A
:100CB000C0E90F32C0E91123C0E91323C0E91523AD
:100CC000C0E91932C0E902330322C0E90C13C0E9BC
:100CD00017341D2342614262C361C36204F0BEFE49
:100CE00028BB0221002301254FF400744FF4FE625B
:100CF0000491154802A90792CDE90233CDE90554C4
:100D000005F0F2F8E8B9002402220F481146234604
:100D1000009405F02DF9224601210B4805F062FAF6
:100D200060B9094805F042F920B90BB030BDFFF7B2
:100D300027FED6E7FFF724FE0BB030BDFFF720FEFD
:100D4000EFE7FFF71DFEDEE76001002000A4004092
:100D500030B52D480124002304220A2184748463C1
:100D600002242A4D8BB00382056081610162816299
:100D7000C0E90F32C0E91123C0E91323C0E91523EC
:100D8000C0E91932C0E902330322C0E90C13C0E9FB
:100D900017341D2342614262C361C36204F05EFEE8
:100DA00028BB0221002301254FF400744FF4FE629A
:100DB0000491154802A90792CDE90233CDE9055403
:100DC00005F092F8E8B9002402220F4811462346A4
:100DD000009405F0CDF8224601210B4805F002FAF7
:100DE00060B9094805F0E2F820B90BB030BDFFF753
:100DF000C7FDD6E7FFF7C4FD0BB030BDFFF7C0FD60
:100E0000EFE7FFF7BDFDDEE77400002000D40040EF
:100E100010B5BAB000210446B8220CA80A91CDE959
:100E20000611CDE90811FFF753FA2368784A934277
:100E300007D0784A934249D0774A93427ED03AB05D
:100E400010BD9FED697B4FF080530CA88DED0C7B9E
:100E5000279302F087FA002840F0BC806F4A13689D
:100E60000133012B13600CD16D4BD3F8EC2042F40D
:100E70008072C3F8EC20D3F8EC3003F48073009355
:100E8000009B674B092406A96648D3F8E02042F08E
:100E90000802C3F8E020D3F8E0309FED557B03F063
:100EA00008038DED067B0193019B9FED537B8DED38
:100EB000087B0A9403F09EFA00223F20114601F0BD
:100EC00057FB3F2001F090FB3AB010BD9FED467BF1
:100ED0004FF080530CA88DED0C7B279302F042FA63
:100EE00000287AD14D4A13680133012B13600CD1CD
:100EF0004B4BD3F8EC2042F48072C3F8EC20D3F8CB
:100F0000EC3003F480730293029B454B092406A93D
:100F10004548D3F8E02042F002029FED397BC3F848
:100F2000E020D3F8E0308DED067B03F002039FED67
:100F3000327B0393039B8DED087BBAE79FED2A7B01
:100F40004FF080530CA88DED0C7B279302F00AFA2A
:100F5000002845D1314A13680133012B13600CD1AD
:100F60002F4BD3F8EC2042F48072C3F8EC20D3F876
:100F7000EC3003F480730493049B294B052406A9E9
:100F80002848D3F8E02042F008029FED1F7BC3F809
:100F9000E020D3F8E0300A9403F008038DED067BDF
:100FA0009FED157B0593059B8DED087B03F022FAE1
:100FB00000229F20114601F0DBFA9F2001F014FB74
:100FC0000022A020114601F0D3FAA02001F00CFB72
:100FD0003AB010BDFFF7D4FC40E7FFF7D1FC81E742
:100FE000FFF7CEFCB6E700BF008000000000000065
:100FF00003000000020000000000000002000000EA
:10100000600000000200000000300000020000004C
:1010100000A0004000A4004000D400407000002068
:1010200000440258000C02580004025814480023DF
:1010300014494FF4800210B580E80E004FF0806232
:1010400007244FF0005143628362C36243658365A6
:10105000C0E905324FF08042C0E90343C0E90713FD
:10106000C0E90D23C0E90F33C0E91133C0E91333E0
:1010700005F0EEFA00B910BDBDE81040FFF780BCE6
:101080003803002000300140D0B5B8B0002104463C
:10109000B8220AA80891CDE90411CDE90611FFF79D
:1010A00017F92F4B22689A4201D038B0D0BD4FF4C7
:1010B000805600274FF480430AA8CDE90A672193A0
:1010C00002F050F9002847D1264B80200221052448
:1010D000D3F8F0200026002742F48052C3F8F02015
:1010E000D3F8F02002F480520192019AD3F8E02064
:1010F00042F00802C3F8E020D3F8E02002F0080232
:101100000292029AD3F8E02042F00202C3F8E020F3
:10111000D3F8E030089403F00203CDE9040103930F
:1011200004A91148039BCDE9066703F063F9022384
:10113000182204A90D480894CDE90423CDE90667D7
:1011400003F058F900222320114601F011FA232060
:1011500001F04AFA38B0D0BDFFF712FCB4E700BF87
:101160000030014000440258000C025800040258AC
:1011700010B5002388B01C4886211C4C4FF6FF7226
:10118000049300930361436183610793C0E90041C5
:10119000C0E90232CDE90533CDE9013300F012FE9A
:1011A000A0B94FF4805304A90F48049300F0EAFF5C
:1011B00098B9002369460C4802939FED097B8DED99
:1011C000007B01F059F920B908B010BDFFF7D8FB3A
:1011D000E7E7FFF7D5FB08B010BDFFF7D1FBE8E765
:1011E0000000000000000000000500200000014099
:1011F00000B58DB02022002104A8FFF769F815483A
:101200004FF080410023012201604FF0FF31029333
:10121000C16003A943608360036183610392059207
:101220000992CDE9003300F0D5FE50B9002369469C
:1012300008480093029301F01FF928B90DB05DF83A
:1012400004FBFFF79DFBF1E7FFF79AFB0DB05DF89C
:1012500004FB00BFB004002010B5002388B019487B
:1012600045F6C051184C41F2883204930193046052
:1012700041608360C260036183610793CDE90533F8
:10128000CDE9023300F09EFD88B94FF4805304A9E4
:101290000C48049300F076FF80B9002301A90948A7
:1012A0000193039301F0E8F820B908B010BDFFF7EF
:1012B00067FBEAE7FFF764FB08B010BDFFF760FBD0
:1012C000EBE700BF600400200008004000000000C1
:1012D00000B58DB02022002104A8FEF7F9FF1A48BE
:1012E0001A490023012201604FF6FF710293436106
:1012F000836105920992C0E903130321039103A9B5
:10130000CDE90033C0E9013300F064FE68B9002381
:1013100069460D4802939FED0A7B8DED007B01F03D
:10132000ABF828B90DB05DF804FBFFF729FBEEE739
:10133000FFF726FB0DB05DF804FB00BFAFF30080A4
:101340000000000000000000100400200004014024
:1013500010B5002388B0194842F21071184C4FF4B0
:10136000347204930193046041608360C26003613E
:1013700083610793CDE90533CDE9023300F022FD07
:1013800088B94FF4805304A90C48049300F0FAFE86
:1013900080B9002301A909480193039301F06CF877
:1013A00020B908B010BDFFF7EBFAEAE7FFF7E8FA5B
:1013B00008B010BDFFF7E4FAEBE700BFC003002060
:1013C00000E00040264A0368934210B584B007D07D
:1013D000244A93422BD0244A934210D004B010BD2B
:1013E000224BD3F8F02042F00102C3F8F020D3F8EA
:1013F000F03003F001030193019B04B010BD1B4BBF
:101400000022A120D3F8EC40114644F08074C3F8C8
:10141000EC40D3F8EC3003F080730393039B01F0AE
:10142000A7F8A12004B0BDE8104001F0DDB80F4BD3
:1014300000221E20D3F8E840114644F00404C3F80B
:10144000E840D3F8E83003F004030293029B01F074
:101450008FF81E2004B0BDE8104001F0C5B800BFF1
:10146000000001400008004000E000400044025835
:101470000268002310B5B2F1804F8AB0CDE9043381
:10148000CDE90633089304D0294B9A4222D00AB002
:1014900010BD284B012404A92748D3F8E820224393
:1014A000C3F8E820D3F8E82022400092009AD3F84D
:1014B000E0202243C3F8E020D3F8E0300894234032
:1014C0009FED177B0193019B8DED047B02F092FF52
:1014D0000AB010BD174B032404A91848D3F8F02014
:1014E00042F00202C3F8F020D3F8F02002F002022A
:1014F0000292029AD3F8E02042F00402C3F8E020FE
:10150000D3F8E030089403F004039FED077B0393C6
:10151000039B8DED047B02F06DFF0AB010BD00BF90
:101520000300000002000000C000000002000000F4
:10153000000401400044025800000258000802580C
:10154000214800232149224A10B5C0E900124FF476
:1015500000524FF480544FF480618361C2600C22CA
:101560008460C361036243628362C0E9041206F0CF
:10157000C3FC70B90021144806F054FD88B900215D
:10158000114806F091FDA0B90F4806F02DFDB8B93D
:1015900010BDFFF7F5F900210B4806F043FD0028C8
:1015A000EDD0FFF7EDF90021074806F07DFD00289A
:1015B000EAD0FFF7E5F9044806F016FD0028E7D069
:1015C000BDE81040FFF7DCB9080B002000500040D8
:1015D000A086010010B51F4800231F4C4FF47A313C
:1015E0000C22836043628362C0E90041C0E9033397
:1015F000C0E90523C0E9073306F07EFC70B900217D
:10160000144806F00FFD88B90021124806F04CFD81
:10161000A0B9104806F0E8FCB8B910BDFFF7B0F962
:1016200000210C4806F0FEFC0028EDD0FFF7A8F9D9
:101630000021084806F038FD0028EAD0FFF7A0F99D
:10164000044806F0D1FC0028E7D0BDE81040FFF7C1
:1016500097B900BF380A00200078004022484FF4B4
:10166000E1322249002310B5C0E900124FF40052C4
:101670004FF480544FF480618361C2600C22846017
:10168000C361036243628362C0E9041206F034FC62
:1016900070B90021144806F0C5FC88B90021124831
:1016A00006F002FDA0B9104806F09EFCB8B910BDC6
:1016B000FFF766F900210C4806F0B4FC0028EDD0D5
:1016C000FFF75EF90021084806F0EEFC0028EAD09A
:1016D000FFF756F9044806F087FC0028E7D0BDE87C
:1016E0001040FFF74DB900BF68090020001001400D
:1016F00010B51F4800231F4C4FF47A310C22836031
:1017000043628362C0E90041C0E90333C0E90523B5
:10171000C0E9073306F0F0FB70B90021144806F069
:1017200081FC88B90021124806F0BEFCA0B910481F
:1017300006F05AFCB8B910BDFFF722F900210C4899
:1017400006F070FC0028EDD0FFF71AF900210848D8
:1017500006F0AAFC0028EAD0FFF712F9044806F0C8
:1017600043FC0028E7D0BDE81040FFF709B900BFEF
:1017700098080020001C0140F0B5BFB000210446CD
:10178000B82210A80E91CDE90A11CDE90C11FEF78F
:101790009FFD2368B34A934200F08580B24A93428A
:1017A00000F0EE80B14A934200F08081B04A93424B
:1017B00001D03FB0F0BD0122002310A8CDE91023D5
:1017C00001F0D0FD002840F0F281AA4B0420022154
:1017D0000026D3F8F020002742F08002C3F8F02062
:1017E000D3F8F02002F080020892089AD3F8E020A3
:1017F00042F01002C3F8E020D3F8E03003F0100309
:1018000009930423099A0E93CDE90A010AA99A487B
:10181000CDE90C6702F0EEFD0B2308220AA90E9316
:1018200002239548CDE90A23CDE90C6702F0E2FDD9
:10183000924E762200239249304672604FF48062C5
:101840003160B360F36032617361B361F36133623D
:10185000736203F005F8002840F0AF81894D7722CC
:10186000894900236A604FF480622960402128463C
:10187000C4F88060B463EB606B61A960AB612A61FE
:10188000EB612B626B6202F0EBFF002840F092816B
:1018900000229C20E5671146AC6300F069FE9C20A5
:1018A00000F0A2FE85E70222002310A8CDE9102354
:1018B00001F058FD002840F065816E4B4FF4005058
:1018C00002210026D3F8E8200027704D42F4801250
:1018D000C3F8E820D3F8E82002F480120192019ABC
:1018E000D3F8E02042F00202C3F8E020D3F8E02071
:1018F00002F002020292029AD3F8E02042F00802BB
:10190000C3F8E020D3F8E03003F0080303930E237C
:10191000039A0E93CDE90A010AA95D48CDE90C6747
:1019200002F068FD082304220AA90E9302235948F5
:10193000CDE90A23CDE90C6702F05CFD41220023CA
:1019400055496A604FF4806228462960AB60EB60BD
:101950002A616B61AB61EB612B626B6202F080FF0D
:10196000002840F00C8100223520C4F88050114638
:10197000AC6300F0FDFD352000F036FE3FB0F0BD59
:101980000222002310A8CDE9102301F0EBFC00286F
:1019900040F0FB80374B07200AA9404ED3F8E820DF
:1019A00042F08042C3F8E820D3F8E82002F08042F9
:1019B0000492049AD3F8E02042F01002C3F8E02029
:1019C0004FF4C072D3F8E0300E9003F010032A48B1
:1019D00005930223059DCDE90A2300220023CDE9CA
:1019E0000C2302F007FD2E494F22002331604FF4F3
:1019F000806172604FF400323046B360F36073610F
:101A0000B3613161F3613262736202F029FF002831
:101A100040F0C180234D5022234900236A604FF4D7
:101A20008062296040212A614FF400322846C4F8C0
:101A30008060B463EB606B61A960AB61EB612A62AB
:101A40006B6202F00DFF002840F0A28000225220BD
:101A5000E5671146AC6300F08BFD522000F0C4FD39
:101A60003FB0F0BD00500040007800400010014041
:101A7000001C01400044025800100258C805002014
:101A80001000024050050020700002402008002095
:101A900000040258000C025828000240A807002049
:101AA000400002403007002058000240012200237D
:101AB00010A8CDE9102301F055FC002871D1404B4E
:101AC00007200AA93F4ED3F8F02042F01002C3F8D5
:101AD000F020D3F8F02002F010020692069AD3F814
:101AE000E02042F00102C3F8E0204FF4C062D3F8D6
:101AF000E0300E9003F00103334807930223079D63
:101B0000CDE90A2300220023CDE90C2302F072FC68
:101B10002E492A2200233160402172604FF48062F6
:101B20003046F3607361B361F361B1603261336277
:101B3000736202F095FE88BB254D292200232549BA
:101B40006A604FF480622846E667B4632960AB6040
:101B5000EB602A616B61AB61EB612B626B6202F03F
:101B60007FFE08BB00222520C4F880501146AC63DC
:101B700000F0FEFC252000F037FD3FB0F0BDFEF781
:101B8000FFFEF0E6FEF7FCFE97E6FEF7F9FE01E742
:101B9000FEF7F6FE5AE7FEF7F3FE3BE7FEF7F0FE30
:101BA000CAE7FEF7EDFE8AE7FEF7EAFEDAE7FEF7A0
:101BB000E7FE0AE6FEF7E4FE6AE6FEF7E1FE4DE622
:101BC00000440258B8060020000002588800024075
:101BD00040060020A0000240FEE700BFFEE700BF75
:101BE000FEE700BFFEE700BFFEE700BF704700BF93
:101BF000704700BF704700BF704700BF014803F047
:101C0000FFBA00BFC8050020014803F0F9BA00BFC1
:101C100020080020014803F0F3BA00BFA807002005
:101C2000014803F0EDBA00BF30070020014803F07F
:101C3000E7BA00BF50050020014803F0E1BA00BF39
:101C4000B8060020014803F0DBBA00BF40060020C0
:101C5000202008B502F00EFD4FF48070BDE808406A
:101C600002F008BD014800F05BBB00BF600400202B
:101C7000014804F0CBBF00BF38030020014805F045
:101C80001BBC00BF680900204FF4004002F0F2BC0A
:101C9000014805F011BC00BF080B0020014800F00E
:101CA0003FBB00BFD40B0020044808B504F0DEFAA7
:101CB0000348BDE8084004F0D9BA00BF4C02002038
:101CC00060010020014805F0F7BB00BF380A002082
:101CD000014805F0F1BB00BF98080020014804F05E
:101CE000C5BA00BF74000020014804F0BFBA00BFAD
:101CF00074000020014800F013BB00BFC0030020A7
:101D0000074B82B0D3F8F42042F00202C3F8F4206B
:101D1000D3F8F43003F002030193019B02B0704743
:101D2000004402580F2801D90120704730B5014600
:101D30008BB000220446362000F01AFC362000F05A
:101D400053FC1B4B1B4A694602A81460D3F8E820D9
:101D500042F01002C3F8E820D3F8E83003F0100393
:101D60000193019B01F0EEF9079BC3B901F05AF909
:101D7000034611490022114CA1FB0313104D40F200
:101D8000E73120469B0C2560A260013BC4E90312A9
:101D9000636000F017F830B101200BB030BD01F0E6
:101DA00041F94300E5E7204600F0B6F8F5E700BF4B
:101DB000004402581800002083DE1B43D40B00208F
:101DC00000100040002800F09980F8B590F83D30F0
:101DD000044603F0FF02002B00F0818023680222FA
:101DE0004749484DB3F1804FA3EB010184F83D20F2
:101DF000A3EB050E1A68B1FA81F1A069BEFA8EFE56
:101E000066684FEA5111E7684FEA5E1E27D031BB82
:101E1000DFF800C1634522D00CF5806C63451ED00D
:101E20000CF5806C63451AD0BEF1000F17D136490E
:101E30008B4259D001F580618B4255D0334DA1F5CD
:101E4000C8418B4218BFAB424ED001F580618B4236
:101E50004AD022F08002DF629E6210431EE0A56835
:101E600022F07002D4F810C02A43DF629E6222F48E
:101E7000407242EA0C0222F08002104361B9BEF1C6
:101E8000000F09D12049224A934218BF8B4203D048
:101E900002F58062934201D162691A6319680122D6
:101EA00041F0040119605A611860002084F848204C
:101EB00084F83E2084F83F2084F8402084F84120B4
:101EC00084F8422084F8432084F8442084F8452094
:101ED00084F8462084F8472084F83D20F8BD80F837
:101EE0003C20FFF76FFA79E7216922F44072DF6244
:101EF0000A439E6222F080021043C3E7012070472C
:101F00000000014000040140004001400048014041
:101F1000004401400004004090F83D30012B49D1BD
:101F200002680221244BB2F1804F18BF9A4230B4AC
:101F30000CBF01230023214D214CAA4208BF43F0CE
:101F4000010380F83D101F48A24208BF43F001037F
:101F500004F58064D168A24208BF43F0010304F590
:101F6000406441F00101824208BF43F0010300F5E3
:101F70007050D160A24208BF43F00103124982426F
:101F800008BF43F001038A4208BF43F0010313B9BD
:101F90000E4B9A4207D191680D4B0B40062B06D091
:101FA000B3F5803F03D0136843F0010313600020B2
:101FB00030BC704701207047000001400004004021
:101FC000000800400004014000E0004000E4004040
:101FD00007000100002800F0C0802DE9F04190F8D2
:101FE0003D3004460D4603F0FF02002B00F0A580B3
:101FF000236802215A4A84F83D10B3F1804F996852
:10200000584E02EA01025849A3EB0608A069A3EB67
:1020100001019A60B8FA88F81A68B1FA81F1676824
:102020004FEA5818D4F80CC04FEA511128D039BBE8
:10203000DFF84CE1734523D00EF5806E73451FD059
:102040000EF5806E73451BD0B8F1000F18D14749CB
:102050008B4277D001F580618B4273D0444EA1F55D
:10206000C8418B4218BFB3426CD001F580618B42EE
:1020700068D022F08002C3F82CC09F6210431FE09A
:10208000A66822F07002D4F810E03243C3F82CC0E6
:102090009F6222F4407242EA0E0222F08002104354
:1020A00061B9B8F1000F09D13049324A934218BFE3
:1020B0008B4203D002F58062934201D162691A63B8
:1020C0001A680126A96842F004021A602A695E6152
:1020D0004FEA021EAA69186041EA022CE969986871
:1020E0004EEA01229F69244939406F694CEA010C8C
:1020F000E9680A43196A21F0AA0E296A42EA013204
:1021000069682D6841EA0711284341EA0E01986089
:102110001A480CEA0000024300209A61196284F810
:10212000486084F83E6084F83F6084F8446084F836
:10213000456084F83D60BDE8F08180F83C20FFF701
:1021400097F955E7216922F44072C3F82CC00A437D
:102150009F6222F080021043A6E70120704700BF73
:10216000F8BFFEFF000401400000014000400140B4
:102170000048014000440140FCFCFFFF0303FFFF57
:102180000004004090F83C30012B7ED00246022330
:1021900030B40468012082F83D3082F83C00584B8E
:1021A000A5682B40A3600B68702B00F0988025D8A1
:1021B000502B6CD038D9602B18D14B68CD68216A70
:1021C000206A21F0A00120F0100041EA03114D4BDC
:1021D0002062A06920F4704040EA0530A061002030
:1021E0002162A1680B4043F06703A3600121002333
:1021F00082F83D1082F83C3030BC7047B3F5005F88
:102200005DD031D940498B4206D027D93F498B4216
:1022100002D010318B42E9D1A0683A4901401943FC
:1022200041F00701A16022E0402B22D1236A4868D7
:10223000CD6823F00A03216A1843324B21F00101D3
:102240002162A16921F0F00141EA0511A16120623A
:10225000A1680B4043F04703A36008E023F010019E
:10226000B1F5801FC2D1D7E7B3F5805FBED10020A2
:10227000BCE7BBD8202BCFD003D9302BCCD001204A
:10228000B4E733F01001B1D1C6E702207047236AEA
:102290004868CD6823F00A03216A1843194B21F0DE
:1022A00001012162A16921F0F00141EA0511A1615A
:1022B0002062A1680B4043F05703A360D7E7D1E940
:1022C0000153A0682B43CD6820F47F4143EA0523E6
:1022D0000B43A360A36843F48043A360C7E7D1E93D
:1022E0000153A0682B43CD6820F47F4143EA0523C6
:1022F0000B43A360A36843F07703A360B7E700BF75
:102300008800CEFF8FFFCFFF2000100030001000AC
:10231000704700BF704700BF704700BF704700BFE5
:10232000F8B503680546DE681C69A10701D5B20748
:1023300057D4670701D5700740D4210701D532076C
:102340002AD4E70601D5F00613D4E10701D5F20738
:1023500065D414F4025F04F4807752D0330666D457
:10236000600601D5710673D4A20601D5B3064DD41B
:10237000F8BD2B686FF0100228461A6108222A77F0
:10238000DB6913F4407F74D1FFF7C2FF2846FFF7E3
:10239000C3FF00232B77D8E72B686FF0080228468D
:1023A0001A6104222A77DB699B075FD1FFF7B0FF30
:1023B0002846FFF7B1FF00232B77C2E72B686FF0A9
:1023C000040228461A6102222A779B6913F4407F8F
:1023D00049D1FFF79DFF2846FFF79EFF00232B778B
:1023E000ABE76FF002021A61012202779B699B073B
:1023F00036D1FFF78DFF2846FFF78EFF00232B779E
:1024000097E7002FACD037061AD4A9E72B686FF0F6
:10241000200228461A61BDE8F84000F091B82B6808
:102420006FF0010228461A61FEF7A0FA91E72B68C7
:102430006FF4025228461A6100F084F8002F8FD002
:102440002B686FF4807228461A6100F07DF887E7E8
:102450002B686FF0400228461A61FFF75FFF83E7A1
:10246000FFF758FFCAE7FFF755FFB7E7FFF752FF3F
:10247000A1E7FFF74FFF8CE790F83C30012B53D0DA
:1024800003680246022070B4284D82F83D00AB423A
:1024900058689C683ED005F58065AB423AD020F084
:1024A00070052348234E834218BFB3F1804F0CBF01
:1024B00001200020B34208BF40F0010006F580660D
:1024C000B34208BF40F0010006F54066B34208BFC2
:1024D00040F0010006F59436B34208BF40F0010019
:1024E0000E6835435D60144DAB4208BF40F00100FB
:1024F00010B91248834204D1896824F080040C4347
:102500009C6000230121184682F83D1082F83C307F
:1025100070BC70474D6820F4700028430D6820F0AF
:10252000700028435860E7E7022070470000014030
:10253000000400400008004000E0004000E40040CB
:10254000704700BF704700BF704700BF06494FF695
:10255000FF0C0002054BCA6800F4E06002EA0C02BE
:1025600010430343CB60704700ED00E00000FA0524
:102570001A4BDB68C3F3022300B5C3F1070E03F166
:10258000040CBEF1040F28BF4FF0040EBCF1060F7F
:102590001AD9A3F1030C4FF0FF3303FA0CF322EA2C
:1025A00003024FF0FF33002803FA0EF321EA03037E
:1025B00003FA0CF343EA02034FEA0313DBB206DB30
:1025C000074A13545DF804FB00229446E9E700F043
:1025D0000F00044A13545DF804FB00BF00ED00E057
:1025E00000E400E014ED00E0002807DB012300F028
:1025F0001F01034A40098B4042F82030704700BF5A
:1026000000E100E0334B30B4996A9C6ADD6A14F44F
:102610007C7F5A6BC4F3051036D0C2F3CC0205F0B0
:10262000010501F0030107EE900A05FB02F2012902
:10263000B8EEE77A06EE902AFAEEE96A02D00229AD
:1026400042D019B3DFED247A87EE876A1B6BC3F3A0
:10265000080307EE903AF7EE005AF8EEE77A77EEC5
:10266000A67A77EEA57A67EE867A1A4B1B6BC3F3D0
:102670004623013307EE103AF8EEC76A87EEA67AD2
:10268000FCEEC77A17EE900A30BC70471A689206C3
:102690001DD51968F7EE005A104A1B6BC1F3C10132
:1026A000C3F30803CA4007EE903A06EE102AF8EE8C
:1026B000E77AB8EEC66A77EEA66AC6EE077A36EE15
:1026C000A57A67EE877AD0E7DFED057ABCE7DFED24
:1026D000057AB9E7004402580024744A0090D003F8
:1026E000001BB74B0024744C002800F0A182F8B501
:1026F00003680446D9072ED59B490A69896A02F006
:102700003802102A00F0D680182A00F0CE806368C4
:10271000B3F5803F00F0EE80002B00F04481B3F56C
:10272000A02F914B1A6800F04E8222F480321A607A
:102730001A6822F480221A6003F016F98A4E0546C0
:1027400005E003F011F9401B642800F22A81336888
:102750009B03F6D523689D0764D4D90628D5824902
:102760000A69896A02F03802082A00F0B380182A40
:1027700000F0AB80E3697C4D002B00F04C812B68AE
:1027800043F080032B6003F0EFF8064605E003F00A
:10279000EBF8801B022800F204812B68DB05F6D5DC
:1027A000EB68226A23F07C5343EA0263EB60236800
:1027B0001D0716D563696C4D002B00F00A816B6F05
:1027C00043F001036B6703F0CFF8064605E003F022
:1027D000CBF8801B022800F2E4806B6F9807F6D5D7
:1027E00023689A0616D5A3695F4D002B00F002817D
:1027F0002B6843F480532B6003F0B6F8064605E0DF
:1028000003F0B2F8801B022800F2CB802B689F04F3
:10281000F6D52368590773D4636A002B40F0A8806B
:102820000020F8BD504A1369926A13F0380322D190
:102830004D4BE2681B68590701D5002A43D04A4D29
:102840002B6823F0190313432B6003F08DF8064621
:1028500005E003F089F8801B022800F2A2802B68B3
:102860005B07F6D56B68226923F0FE4343EA0263F7
:102870006B60236871E7182B00F0F0803A4DE26836
:102880002B68002A00F0D98023F0190313432B6032
:1028900003F06AF8064604E003F066F8801B02289D
:1028A0007FD82B685F07F7D5DCE701F00301022929
:1028B0007FF42DAF2C4A126892037FF54CAF62680B
:1028C000002A7FF448AF0120F8BD01F0030101297F
:1028D0007FF450AF244A1268D20502D5E269802AFB
:1028E000F1D12149206ACA6822F07C5242EA006292
:1028F000CA605DE71C4A136843F4803313601BE72A
:102900001A4D2B6843F480732B6003F02DF80646B4
:1029100004E003F029F8801B642842D82B68DA050C
:10292000F7D5A368012B00F06F81002B00F05381D5
:10293000052B0D4B1A6F00F0738122F001021A670C
:102940001A6F22F004021A6703F00EF8064E41F2E5
:102950008837054604E003F007F8401BB84220D84A
:10296000336F9B07F7D557E70044025800480258D9
:10297000A84D2A6902F03802182A00F0D780022BED
:102980002B6823F080732B606CD002F0EDFF0446BF
:102990002B689B017FF544AF02F0E6FF001B022885
:1029A000F6D90320F8BD9B4D2B6823F480332B60B0
:1029B0002B6823F480232B6002F0D6FF064604E048
:1029C00002F0D2FF801B6428EBD82B689F03F7D45A
:1029D000C0E66B6F23F001036B6702F0C5FF06468C
:1029E00004E002F0C1FF801B0228DAD86B6F990760
:1029F000F7D4F5E62B6823F480532B6002F0B4FF84
:102A0000064604E002F0B0FF801B0228C9D82B68FC
:102A10009804F7D4FDE62B6823F080032B6002F0C6
:102A2000A3FF064604E002F09FFF801B0228B8D8EF
:102A30002B68DF05F7D42368BAE623F001032B6087
:102A400002F092FF064604E002F08EFF801B02288F
:102A5000A7D82B685807F7D423687EE690077FF441
:102A60000DAFE5E602F080FF064604E002F07CFFD1
:102A7000801B022895D82B689901F7D4A96A664B68
:102A8000A26A0B406549634E1343E26A43EA0213AC
:102A9000AB62D4E90D32013B013A5B0212049BB2F6
:102AA00002F4FE021343226B013AC2F308021343FD
:102AB000E26B013A120602F0FE4213432B63EB6A0B
:102AC00023F00103EB626A6BA36C114041EAC3017E
:102AD0006963EB6A226C23F00C031343EB62EB6A2D
:102AE000626C23F002031343EB62EB6A43F480331E
:102AF000EB62EB6A43F40033EB62EB6A43F480234E
:102B0000EB62EB6A43F00103EB622B6843F08073E6
:102B10002B6002F029FF044633689A013FF580AE2E
:102B200002F022FF001B0228F6D93AE7012BAA6A1D
:102B3000286B3FF4C8AE02F00303A16A8B427FF416
:102B4000C2AEC2F30512E36A9A427FF4BCAE236BB5
:102B5000C0F30802013B9A427FF4B5AE636BC0F349
:102B60004622013B9A427FF4AEAEA36BC0F306420D
:102B7000013B9A427FF4A7AEE36BC0F30660013BD2
:102B800098427FF4A0AE6B6BA26CC3F3CC039A4265
:102B90003FF446AE1F4AD36A23F00103D36202F02A
:102BA000E3FE054602F0E0FEA842FBD0194A1B4BAB
:102BB000506BA16C034043EAC1035363D36A43F0F3
:102BC0000103D3622CE642F480221A601A6842F4B0
:102BD00080321A60B0E50F4D41F288372B6F23F039
:102BE00001032B672B6F23F004032B6702F0BCFE5D
:102BF000064605E002F0B8FE801BB8423FF6D1AEB3
:102C00002B6F9807F6D407E6024A136F43F00103CF
:102C1000136799E6004402580CFCFFFF0700FFFF12
:102C200042F004021A671A6F42F001021A678BE63B
:102C3000012070473F4A136903F03803102B04D07A
:102C4000182B0DD01BB13C4870473C4870471368A7
:102C5000990648D513683A48C3F3C103D840704772
:102C6000916A30B4946AD56A14F47C7F536BC4F3D0
:102C7000051036D0C3F3CC0305F0010501F00301C4
:102C800007EE900A05FB03F30129F8EEE77A06EE5A
:102C9000903AFAEEE96A02D0022926D041B39FEDBC
:102CA000297A87EE276A136BC3F3080307EE103AFD
:102CB000F7EE005AB8EEC77A37EE267A37EE257A65
:102CC00027EE067A1B4B1B6BC3F34623013307EE3B
:102CD000903AF8EEE76AC7EE267AFCEEE77A17EE4E
:102CE000900A30BC7047164870479FED177AD8E7B6
:102CF00013689B061AD51068F7EE005A136B10493B
:102D0000C0F3C102C3F30803D14007EE103A06EE48
:102D1000101AB8EEC77AB8EEC66A77EE266A86EE63
:102D2000277A76EEA57A27EE277ACBE79FED077A0A
:102D3000B7E700BF0044025800093D0000366E01AD
:102D40000090D0030024744A001BB74B0024744C3D
:102D5000002800F00E818D4A136803F00F038B42A8
:102D60002DE9F04104460D460CD2136823F00F0301
:102D70000B431360136803F00F038B4202D0012052
:102D8000BDE8F081236858070BD5814920698A691D
:102D900002F07002904204D98A6922F07002024364
:102DA0008A6119070BD57A496069CA6902F0700215
:102DB000904204D9CA6922F070020243CA61DA065D
:102DC0000BD57349A069CA6902F4E062904204D944
:102DD000CA6922F4E0620243CA619F060BD56C49BE
:102DE000E0690A6A02F07002904204D90A6A22F08D
:102DF000700202430A629E0703F0010240F1AB80B9
:102E0000634EE068B16901F00F01884204D9B169ED
:102E100021F00F010143B161002A30D05C4AA16862
:102E2000936923F470630B4393616168136802290B
:102E300000F0A180032900F09880012900F0A18012
:102E40005F079CD5524E41F28838336923F007035F
:102E50000B43336102F088FD074605E002F084FD74
:102E6000C01B404500F28B803369626803F0380371
:102E7000B3EBC20FF2D123689E0706D5E068444940
:102E80008A6902F00F02824269D840490A6802F05A
:102E90000F02AA420AD90A6822F00F022A430A60E6
:102EA0000A6802F00F02AA427FF469AF58070BD5F7
:102EB000374920698A6902F07002904204D28A6917
:102EC00022F0700202438A6119070BD5304960690C
:102ED000CA6902F07002904204D2CA6922F07002FC
:102EE0000243CA61DA060BD52949A069CA6902F40E
:102EF000E062904204D2CA6922F4E0620243CA61ED
:102F00009B060BD5224AE169136A03F070039942CC
:102F100004D2136A23F070030B431362FFF78AFE97
:102F20001B4A03461B4891699269C1F303211A4D5C
:102F300002F00F02194C415C825C01F01F0118483D
:102F400002F01F02CB4000682B60D3402360BDE835
:102F5000F041FEF7E7BE002A7FF460AF95E78A698B
:102F600022F00F0202438A618FE79A013FF56AAFB0
:102F700005E70120704798033FF564AFFFE60320A3
:102F8000FEE6DB053FF55EAFF9E600BF002000522C
:102F90000044025844A80008200000201C00002023
:102FA00018000020184A38B5136903F03803102BB5
:102FB00019D0182B22D0C3B1144B134914488A6975
:102FC0008969C2F30322134C01F00F01124D825C98
:102FD000405C02F01F0200F01F00D34023FA00F013
:102FE0002B60206038BD0D4BE7E713689B0609D5C1
:102FF00012680B4BC2F3C102D340DEE7FFF702FBBE
:103000000346DAE7064BD8E70044025800093D00C2
:1030100044A800081C0000202000002000366E019B
:103020000090D0031C4A38B5136903F03803102B05
:1030300020D0182B29D0FBB1184B174A184990699A
:10304000184DC0F30320184C085C00F01F00C3406B
:10305000906900F00F002B60085C00F01F00C34077
:103060002360D269C2F30212885C00F01F0023FAC9
:1030700000F038BD0D4BE0E713689B0609D51268D8
:103080000B4BC2F3C102D340D7E7FFF7BBFA0346AD
:10309000D3E7074BD1E700BF0044025800093D00C9
:1030A00044A80008200000201C00002000366E010B
:1030B0000090D0031C4A38B5136903F03803102B75
:1030C00020D0182B29D0FBB1184B174A184990690A
:1030D000184DC0F30320184C085C00F01F00C340DB
:1030E000906900F00F002B60085C00F01F00C340E7
:1030F0002360D269C2F30222885C00F01F0023FA29
:1031000000F038BD0D4BE0E713689B0609D5126847
:103110000B4BC2F3C102D340D7E7FFF773FA034664
:10312000D3E7074BD1E700BF0044025800093D0038
:1031300044A80008200000201C00002000366E017A
:103140000090D003134B3F2202601A6902F007027D
:1031500042609A6902F4706282609A6902F00F021A
:10316000C2609A6902F070020261DA6902F07002CC
:103170004261DA6902F4E06282611B6A10B403F012
:103180007003054CC36123685DF8044B03F00F0323
:103190000B6070470044025800200052F8B5364CCE
:1031A00006460F46236823F08063236002F0DCFBB1
:1031B000054604E002F0D8FB401B022856D82368DD
:1031C0001A01F7D4A36A326823F47C3343EA02334A
:1031D000A362D6E90232013B013A5B0212049BB2C0
:1031E00002F4FE0213437268013AC2F30802134369
:1031F0003269013A120602F0FE421343A363E36A06
:10320000726923F0C0031343E362E26AB36922F0F8
:1032100020021A43194BE262E26A22F01002E262D3
:10322000E16BF2690B4043EAC203E363E36A43F0F4
:103230001003E362E36ADFB1012F0CBF43F4801394
:1032400043F40013E3620C4C236843F08063236073
:1032500002F08AFB054604E002F086FB401B0228D0
:1032600004D823681B01F7D50020F8BD0320F8BD62
:1032700043F40023E362E6E7004402580700FFFF3F
:10328000F8B5364C06460F46236823F0805323607A
:1032900002F06AFB054604E002F066FB401B0228D0
:1032A00056D823689A00F7D4A36A326823F07C7357
:1032B00043EA0253A362D6E90232013B013A5B02C0
:1032C00012049BB202F4FE0213437268013AC2F385
:1032D000080213433269013A120602F0FE42134318
:1032E0002364E36A726923F440631343E362E26A8E
:1032F000B36922F400721A43194BE262E26A22F4C3
:103300008072E262616CF2690B4043EAC20363645B
:10331000E36A43F48073E362E36ADFB1012F0CBF19
:1033200043F4000343F08073E3620C4C236843F0E2
:103330008053236002F018FB054604E002F014FB02
:10334000401B022804D823689B00F7D50020F8BD55
:103350000320F8BD43F48003E362E6E7004402582B
:103360000700FFFF2DE9F843D0E9003204461801B9
:1033700003F0006626D5616EB1F5001F00F05C8693
:1033800015D8002900F0A484B1F5801F40F0108406
:10339000B049896A01F00301032900F00984022180
:1033A00004F10800FFF7FAFE064600F052BEB1F540
:1033B000401F40F0FD83A74D0026286D20F44010EB
:1033C00001432965D9050AD5A16D042906D8DFE88E
:1033D00011F059040B0623065E045E0401263546EF
:1033E0005F0528D5D4F8A410B1F5800F00F0E8856A
:1033F00000F2F980002900F05784B1F5001F40F079
:10340000FC809449896A01F00301032900F0F580EA
:10341000002104F10800FFF7C1FE0546D4E900329F
:10342000002D40F0E2848B4FD4F8A400B96D21F454
:1034300060010143B965180528D5D4F8A810B1F189
:10344000007F00F0A98500F2DB80002900F03684BF
:10345000B1F1807F40F0DE807E49896A01F003018E
:10346000032900F0D780002104F10800FFF796FE41
:103470000546D4E90032002D40F0B484754FD4F8ED
:10348000A800B96D21F0E0610143B965990118D533
:10349000E16C202900F0308500F2BF8039B110299D
:1034A00040F0BE806B48C16A41F40031C162002D1A
:1034B00040F08584674FE06CF96C21F030010143E6
:1034C000F964DF0426D5E16DB1F5005F00F05085A9
:1034D00000F2A980002900F0CC83B1F5805F40F0B4
:1034E000AA805C49896A01F00301032900F0A380E6
:1034F000002104F10800FFF751FE0546D4E900322F
:10350000002D40F06C84534FE06D396D21F4E041A3
:1035100001433965980424D5216EB1F5003F00F0D0
:10352000138500F28B8091B1B1F5803F40F08E8021
:103530004849896A01F00301032900F087800121CD
:1035400004F10800FFF72AFE0546D4E90032002DF9
:1035500040F05C843F4F206E396D21F4E02101433F
:103560003965590423D5D4F8AC10B1F1005F00F0EF
:10357000D78471D881B1B1F1805F75D13549896A3D
:1035800001F0030103296FD0012104F10800FFF7C6
:1035900005FE0546D4E90032002D40F04D842D4F44
:1035A000D4F8AC00B96D21F0E0410143B9651F04C6
:1035B0000DD5E16EB1F1805F00F0CF82B1F1005F17
:1035C00000F0DB83002900F0CD8201263546D801CA
:1035D00056D5A16C032900F29B85DFE811F04D0060
:1035E000480032044D0021F40010B0F5000F3FF404
:1035F00017AFB1F5C00F3FF413AF012635461AE7F8
:1036000021F08070B0F1806F3FF435AFB1F1407FB1
:103610003FF431AF0126354638E730293FF447AF54
:10362000012635464DE7B1F5405F3FF469AFB1F58E
:10363000804F3FF465AF012635466BE721F48030BB
:10364000B0F5802F83D0B1F5403F80D001263546BC
:1036500087E700BF0044025821F08050B0F1804F4E
:103660009AD0B1F1405F97D0012635469FE73748A1
:10367000C16A41F40031C162002D00F0A3832E46DF
:10368000590200F1B482D8072FD5A16F28292AD872
:10369000DFE811F0A20229002900290029002900F1
:1036A0002900290093022900290029002900290066
:1036B000290029000B0529002900290029002900DB
:1036C00029002900A2022900290029002900290037
:1036D00029002900A2022900290029002900290027
:1036E00029002900A2020126354699071ED5616FDF
:1036F000052900F2F384DFE811F015000600C60486
:103700001500150015001149896A01F0030103290C
:1037100000F0E484012104F10800FFF73FFD0546B5
:10372000D4E90032002D00F074832E465F0722D5C5
:10373000D4F89010052900F2D584DFE811F01800C4
:103740000900920418001800180000BF0044025835
:10375000AF49896A01F00301032900F0C384012104
:1037600004F10800FFF71AFD0546D4E90032002DE8
:1037700000F057832E46980626D5D4F88C10B1F168
:10378000005F00F0838300F2898191B1B1F1805F25
:1037900040F08E819E49896A01F00301032900F0FF
:1037A0008781002104F10800FFF7F8FC0546D4E901
:1037B0000032002D40F02683954FD4F88C00796DAF
:1037C00021F0E04101437965590626D5D4F89810D7
:1037D000B1F5006F00F06C8300F26D8191B1B1F52D
:1037E000806F40F072818A49896A01F003010329E0
:1037F00000F06B81002104F10800FFF7CFFC0546C3
:10380000D4E90032002D40F0FB82814FD4F89800BB
:10381000B96D21F4E0510143B9651F0626D5D4F8EE
:103820009C10B1F5804F00F0558300F2518191B1A9
:10383000B1F5005F40F056817549896A01F00301D6
:10384000032900F04F81002104F10800FFF7A6FCD6
:103850000546D4E90032002D40F0D6826C4FD4F8F2
:103860009C00B96D21F460410143B96518070BD57F
:10387000D4F88000B0F5805F00F04282644F796D2B
:1038800021F4405101437965D9060BD5D4F8940051
:10389000B0F5807F00F049825D4FB96D21F4407131
:1038A0000143B9651F030ED5D4F8A010B1F5803FD0
:1038B00000F06381B1F5003F00F06E81002900F057
:1038C0006D820126354658030FD5D4F88410B1F522
:1038D000001F00F0C982B1F5401F00F03281B1F540
:1038E000801F00F0298101263546D90320D5216D9E
:1038F000002900F02F82B1F5803F40F01A81444941
:10390000896A01F00301032900F01381022104F107
:103910000800FFF743FC0546D4E90032002D40F0D3
:1039200021823B4F206DF96C21F480310143F96411
:103930009F000ED53649896A01F00301032907D09B
:10394000022104F12800FFF79BFCD4E9003200B10A
:103950000126980340F1D580E16FB1F5807F00F03A
:10396000038240F2C28021F48070B0F5007F00F045
:10397000BF800125D90206D52548266F016D21F0AB
:103980000041314301659F0206D52148A66E016DB5
:1039900021F08071314301655E0009D51C49086939
:1039A00020F4004008610869D4F8B460304308612D
:1039B000002B06DA1648666DC16C21F04051314388
:1039C000C164180207D51249D4F888004B6D23F45E
:1039D000400303434B65D1070FD50D4B9B6A03F0A2
:1039E0000303032B00F08681002104F10800FFF798
:1039F000D5FB6268002840F0FF81930713D5044B84
:103A00009B6A03F00303032B00F0698102E000BF0F
:103A100000440258012104F10800FFF7BFFB62686F
:103A2000002840F0E58157070FD5B34B9B6A03F0A0
:103A30000303032B00F05581022104F10800FFF776
:103A4000ADFB6268002840F0D98116070FD5AA4B5C
:103A50009B6A03F00303032B00F04581002104F16E
:103A60002800FFF70DFC6268002840F0C381D006F3
:103A70004AD5A14B04F128069B6A03F00303032BEC
:103A800000F0338101213046FFF7FAFB00283AD0DD
:103A900063689A0640F18E80054639E021F0805037
:103AA000B0F1804F3FF485AEB1F1405F3FF481AE9D
:103AB0000126354688E621F48060B0F5805F3FF44A
:103AC000A1AEB1F5406F3FF49DAE01263546A4E6A8
:103AD00021F40050B0F5004F3FF4BDAEB1F5C04F3A
:103AE0003FF4B9AE01263546C0E600297FF441AF68
:103AF000002D7FF43FAF804D686D20F4407001438E
:103B00006965354636E7626893060DD504F12806E7
:103B1000794B9B6A03F00303032B4BD00221304601
:103B2000FFF7AEFB002845D1281E18BF0120BDE8D5
:103B3000F88301263546FBE66F48C16A41F400313F
:103B4000C162002D40F049816B4FD4F88400796D3B
:103B500021F4401101437965C7E66748C16A41F421
:103B60000031C162002D40F03581634FE06E396D48
:103B700021F040510143396529E55F49896A01F027
:103B8000030103293FF49DAE022104F12800FFF751
:103B900077FB0546D4E90032002D40F04B81564FAB
:103BA000D4F8A000B96D21F440310143B9658AE62B
:103BB000012607E40120BDE8F8834F49896A01F036
:103BC000030103293FF48FAD012104F10800FFF741
:103BD000E5FA0546D4E90032002D40F03081464F29
:103BE000A06F796D21F03801014379657DE5434F80
:103BF0003B6843F480733B6001F0B6FE804606E00C
:103C000001F0B2FEA0EB0800642800F261823B687C
:103C1000DA05F5D5002D40F05C82374AD4F8B03093
:103C2000116F594011F4407F0BD0116F106F21F4C8
:103C3000407140F480301067106F20F480301067BE
:103C40001167B3F5807F00F0678203F44072B2F52C
:103C5000407F00F0758228490A6922F47C520A618B
:103C60002548C3F30B01076F3943D4E900320167DC
:103C700009E52148C16A41F40031C162002D40F0DC
:103C8000AE8040E41C48C16A41F40031C16235464F
:103C9000002D40F0BB81184FA06D396D21F0070158
:103CA00001433965FFF79CBB1348C16A41F40031F9
:103CB000C162002D40F09980FFF7B5BB0E48C16A84
:103CC00041F40031C162002D40F08C80FFF7D6BB7B
:103CD000094DE86A40F40030E862FFF76CBB01254B
:103CE000A1E60125B1E60125C1E691067FF562AFA7
:103CF00001250DE7012580E60044025800480258DE
:103D0000C449896A01F00301032900F0EF8102210F
:103D100004F12800FFF7B4FA002800F0F381D4F88A
:103D200080000126D4E90032A8E5BA49896A01F089
:103D30000301032900F0DD81022104F12800FFF7CF
:103D40009FFA002800F0D881D4F894000126D4E925
:103D50000032A1E5AF48C16A41F40031C162002DD3
:103D60003FF4DFAD2E46E3E5AA4FF86A40F4003099
:103D7000F862002D7FF4FEADBDE6A649896A01F028
:103D8000030103293FF421AC012104F10800FFF7EE
:103D900005FA0546D4E90032E5B9E6E69D48806AB1
:103DA00000F0030003283FF48CAD04F10800FFF796
:103DB000F5F90546D4E90032002D3BD1EFE62E4659
:103DC000FFF77FBB934FA06CF96C21F00301014317
:103DD000F96455E42E46FFF7FABB2E4685E52E46DC
:103DE000FFF798BB2E46FFF751BB2E46FFF723BBCC
:103DF000054618E605463AE60546FEE5054624E68C
:103E00002E460AE52E46DFE42E462FE52E46FFF726
:103E1000A8BB804F606F796D21F007010143796580
:103E200084E47C4FD4F89000B96D21F00701014380
:103E3000B965A0E42E4646E52E46FFF7B8BB2E46F0
:103E400053E47449896A01F00301032900F0608199
:103E5000022104F10800FFF7A1F90546D4E9003278
:103E6000002D7FF40CACADE76A49896A01F00301CB
:103E700003293FF438AD012104F12800FFF700FACF
:103E80000546D4E90032002DA7D15DE66149896A73
:103E900001F0030103293FF40BAE022104F12800D5
:103EA000FFF7EEF90546D4E90032002DAAD183E4EC
:103EB0005849896A01F0030103293FF406AE022143
:103EC00004F12800FFF7DCF90546D4E90032002DA3
:103ED00096D19AE44F49896A01F0030103293FF41E
:103EE00001AE022104F12800FFF7CAF90546D4E922
:103EF0000032002D88D1B1E44649896A01F00301FE
:103F000003293FF48DAB022104F10800FFF746F9C5
:103F10000546D4E90032002D7FF451AFFFF7CABA4D
:103F20003C49896A01F0030103293FF49DAB01215B
:103F300004F12800FFF7A4F90546D4E90032002D6A
:103F40007FF47AAFFFF72BBB3249896A01F0030196
:103F500003293FF47BAB012104F12800FFF790F91E
:103F60000546D4E90032002D7FF450AFFFF7F2BAD6
:103F70002849896A01F0030103293FF45CAB002161
:103F800004F12800FFF77CF90546D4E90032002D42
:103F90007FF425AFFFF7B7BA1E49896A01F0030124
:103FA00003293FF437AB002104F12800FFF768F93B
:103FB0000546D4E90032002D7FF414AFFFF75EBA56
:103FC0001449896A01F0030103293FF416AB00216B
:103FD00004F12800FFF754F90546D4E90032002D1A
:103FE0007FF403AFFFF71FBA0A49896A01F00301A2
:103FF00003293FF4F3A9002104F10800FFF7CEF8EC
:104000000546D4E90032002D3FF445AE2E46FFF7B9
:10401000E7B900BF004402585149896A01F0030121
:1040200003293FF4DBA9002104F12800FFF728F958
:104030000546D4E900322BE64949896A01F00301BB
:1040400003293FF4B5AD022104F12800FFF718F968
:104050000646D4E90032002E7FF4B4A9616EFFF762
:10406000AAB93F49896A01F0030103293AD0012125
:1040700004F12800FFF704F90546D4E90032002DC9
:104080007FF478ABCDE63649896A01F00301032954
:1040900024D0012104F12800FFF7F2F80546D4E905
:1040A0000032002D7FF441ABB3E62D49896A01F05F
:1040B000030103293FF417AB012104F12800FFF7A6
:1040C000DFF80546D4E90032002D7FF4B8AE86E56E
:1040D00003252E46D4E90032FFF7D5BA012635462E
:1040E000FFF724BB01263546FFF745BB0126FFF746
:1040F000C5BB0126FFF7D0BBD4F89400D4E9003249
:10410000FFF7CABBD4F88000D4E90032FFF7B6BB92
:1041100001263546FFF7B4BA01F026FCDFF84080EF
:10412000074641F2883904E001F01EFCC01B4845F7
:1041300010D8D8F870309B07F6D5D4F8B03084E5A5
:104140000748084A016902EA131221F47C510A4324
:10415000026185E50326D4E900323546FFF793BABC
:1041600000440258CFFFFF0008B5FEF71BFF054BC8
:10417000054A1B6AC3F30213D35C03F01F03D84044
:1041800008BD00BF0044025844A80008474A70B464
:10419000946A956AD66A15F47C3FC5F30533D16BF2
:1041A0005BD0C1F3CC01C6F3001604F0030407EEA4
:1041B000903A06FB01F1012CB8EEE77A06EE901A70
:1041C000FAEEE96A03D0022C6AD0002C4AD0DFED67
:1041D000387A87EE876A936BC3F3080307EE903A49
:1041E000F7EE005AF8EEE77A77EEA67A77EEA57A40
:1041F00067EE867A2D4AB7EE006A936BC3F34623C7
:1042000007EE103AB8EEC77A70BC37EE067AC7EE02
:10421000876AFCEEE66AC0ED006A936BC3F306435F
:1042200007EE103AB8EEC77A37EE067AC7EE876A1D
:10423000FCEEE66AC0ED016A936BC3F3066306EE1B
:10424000903AF8EEE66A76EE866A87EEA67AFCEE9B
:10425000C77A17EE903A8360704770BC0360436082
:104260008360704713689B061DD51468F7EE005AEB
:10427000936B1049C4F3C102C3F30803D14007EEA6
:10428000903A06EE101AF8EEE77AB8EEC66A77EEC4
:10429000A66AC6EE077A36EEA57A67EE877AA9E7B0
:1042A000DFED057A95E7DFED057A92E700440258E5
:1042B0000024744A0090D003001BB74B0024744CB8
:1042C000474A70B4946A956AD66A15F07C7FC5F344
:1042D0000553516C5BD0C1F3CC01C6F3002604F04A
:1042E000030407EE903A06FB01F1012CB8EEE77AE1
:1042F00006EE901AFAEEE96A03D0022C6AD0002C7E
:104300004AD0DFED387A87EE876A136CC3F308036F
:1043100007EE903AF7EE005AF8EEE77A77EEA67AD3
:1043200077EEA57A67EE867A2D4AB7EE006A136CAF
:10433000C3F3462307EE103AB8EEC77A70BC37EEE7
:10434000067AC7EE876AFCEEE66AC0ED006A136C77
:10435000C3F3064307EE103AB8EEC77A37EE067A93
:10436000C7EE876AFCEEE66AC0ED016A136CC3F320
:10437000066306EE903AF8EEE66A76EE866A87EE17
:10438000A67AFCEEC77A17EE903A8360704770BC4D
:10439000036043608360704713689B061DD51468F3
:1043A000F7EE005A136C1049C4F3C102C3F30803BB
:1043B000D14007EE903A06EE101AF8EEE77AB8EE22
:1043C000C66A77EEA66AC6EE077A36EEA57A67EE7B
:1043D000877AA9E7DFED057A95E7DFED057A92E7C1
:1043E000004402580024744A0090D003001BB74BCD
:1043F0000024744C2DE9F04F0C6885B0002C00F0BF
:10440000A08000234FF0010B4FF0B04E00910BFA4B
:1044100003FC1CEA040A00F08F8000995F004D68DD
:10442000032105F0030201FA07F602F1FF38F64313
:10443000B8F1010F40F28880032A40F0C680BA40EC
:10444000076815F4403F06EA070642EA06020260E2
:1044500072D0794E03F003070F21D6F8F420BF0085
:1044600042F0020201FA07FC7449C6F8F420D6F8BB
:10447000F42023F00306884206F1B04602F002025F
:1044800006F580660392039AB26822EA0C022CD0E9
:1044900001F58061884200F0AB806949884200F0F4
:1044A000AD80DFF8A0C1604500F09C80DFF898C1C6
:1044B000604500F0AF80DFF894C1604500F0B08047
:1044C000DFF88CC1604500F09F80DFF888C160454F
:1044D00000F0AC80DFF880C160450CBF4FF0090CE4
:1044E0004FF00A0C0CFA07F73A43B260EF02DEF81D
:1044F00000206FEA0A064CBF4AEA02023240A902D3
:10450000CEF80020DEF8042054BF32404AEA02020E
:10451000AF03CEF80420DEF8842054BF32404AEACC
:104520000202E903CEF88420DEF8802054BF324036
:104530004AEA0202CEF88020013334FA03F27FF413
:1045400066AF05B0BDE8F08F0099022AD0F8089058
:10455000C96809EA060901FA07F8009948EA090852
:104560008968C0F80880C5F30018D0F8049008FAEC
:1045700003F829EA0C0C48EA0C0CC0F804C001FA54
:1045800007FCD0F80C8008EA06084CEA080CC0F8D2
:104590000CC07FF454AF03F0070C00994FEAD30826
:1045A0004FEA8C0C096900EB880801FA0CF1D8F885
:1045B000209001910F2101FA0CFC019929EA0C09C4
:1045C00041EA090CC8F820C039E70099D0F80C80FE
:1045D000896808EA060801FA07FC4CEA080CC0F8EA
:1045E0000CC02CE74FF0030C0CFA07F73A437CE7BA
:1045F0004FF0010C0CFA07F73A4376E74FF0020C44
:104600000CFA07F73A4370E74FF0060C0CFA07F77D
:104610003A436AE74FF0040C0CFA07F73A4364E7B1
:104620004FF0050C0CFA07F73A435EE74FF0070C22
:104630000CFA07F73A4358E70044025800000258C2
:1046400000080258000C02580010025800140258CA
:1046500000180258001C025800240258036919422D
:1046600014BF01200020704702B90904816170471E
:10467000704700BF4FF0B042D2F88810014200D11D
:10468000704708B5C2F88800FFF7F2FF08BD00BF09
:104690003649024603688B4233D01831591AB1FAB1
:1046A00081F1490969BB324883423ED018308342C8
:1046B0003ED01830834234D0183083423BD018307B
:1046C00083423ED0183083422AD000F55670834290
:1046D00035D028498B4231D018318B4234D0183133
:1046E0008B4234D018318B4234D018318B4234D0C5
:1046F00018318B4234D018318B4234D023F0FF0074
:1047000011E0DBB21C491D48103BA1FB031310B4A0
:104710001B091B4CE15C5DF8044BC2E916017047B4
:1047200016211848D1659065704710211348F9E7A4
:1047300016211248F6E706211248F3E7062112482F
:10474000F0E710210F48EDE710210F48EAE71621A6
:104750000D48E7E700210D48E4E706210B48E1E7B3
:1047600010210A48DEE716210848DBE71000024066
:104770004000024028040240ABAAAAAA000002405E
:1047800004A800080400024000040240040402409F
:104790000268274B274930B4274D284CAA4218BF3E
:1047A0009A420CBF012300238A4208BF43F0010351
:1047B0002831A24208BF43F0010328348A4208BFCF
:1047C00043F001032831A24208BF43F001038A42AB
:1047D00008BF43F00103D1B213B9194B9A4212D169
:1047E000A1F108031749184AA1FB03130121174C33
:1047F00002EB1312C3F30413920099408166C0E9DF
:10480000182430BC7047A1F110031149114C114418
:10481000A4FB0343A8294FEA131300D808330E4A18
:1048200003F01F0401211A44A1400C4C9200E5E75B
:1048300008540258305402581C5402584454025828
:1048400094540258CDCCCCCC009600168058025817
:10485000F0FBFDBFABAAAAAA0082001080080240AC
:104860002DE9F04F054683B001F07EF8002D00F0F1
:1048700013822C6806467F4B9C4200F0EF80183371
:104880009C4200F0EB8018339C4200F0E780183324
:104890009C4200F0E38018339C4200F0DF80183324
:1048A0009C4200F0DB8018339C4200F0D780183324
:1048B0009C4200F0D38003F556739C4200F0CE80FA
:1048C00018339C4200F0CA8018339C4200F0C68026
:1048D00018339C4200F0C28018339C4200F0BE8026
:1048E00018339C4200F0BA8018339C4200F0B68026
:1048F00018339C4200F0B2805F49604A604BA4EBE1
:104900000109A21A5F4FA4EB0308B9FA89F914331D
:10491000B2FA82F24FEA5919B8FA88F8A4EB030AFE
:1049200052094FEA5818E71BBAFA8AFA49EA020113
:10493000554EB7FA87F755484FEA5A1A48EA010127
:10494000A61BA4EB000B7F094AEA0101B6FA86F622
:104950001430BBFA8BFB39437609231A4FEA5B1BF1
:104960003143B3FA83F35BEA01014FEA5313019336
:1049700002D1002B00F0CB810221DFF824C185F8A1
:104980003510002185F83410216801EA0C0CA96863
:10499000402900F0B981A1F18001B1FA81F1490902
:1049A0004FEA813E2969E868C908394B009241EA1B
:1049B000D0006969234440EAD100A96940EAD100E6
:1049C000E96940EAD100296A40EA111141EA0C0183
:1049D0004EEA010121602F49A1FB03012846090984
:1049E0008900E965FFF754FEE96D009A01F01F04A4
:1049F0000121A140416028460092FFF7C9FEA96845
:104A0000009A802900F02F8168682B6EC4B20138AB
:104A1000D5E919C107281C60CCF8041000F22A81DE
:104A200049EA0A09019B601E48EA090847EA0807A3
:104A30003E4343EA060A5BEA0A0A02D1002A00F072
:104A40005E81154A154922449200012383400020CB
:104A5000C5E91B216B6710604B600FE1022385F8ED
:104A60003530002385F83430236823F001032360B8
:104A70001FE000BF10000240085402581C540258A6
:104A800030540258585402586C54025880540258FA
:104A9000F8ABFDA7CDCCCCCC3F96001640590258C0
:104AA0000F00FEFF00F060FF801B052800F2EF8082
:104AB0002C682368DF07F5D4D5E902302969034360
:104AC000AA6920680B4369690B43E96913430B43E7
:104AD00092490140286A03430B43696A042903D1C0
:104AE000D5E90B06304303436868A0F129061F2E61
:104AF00040F2D680A0F14F06032E00F2E88043F486
:104B0000801323600429636923F0070343EA010348
:104B10000DD1A96AE86A0B4348B1002A40F0C6806B
:104B2000012900F0E78031F0020200F0C7806361E4
:104B30002846FFF7ADFDEA6D3F23794902F01F02D9
:104B4000784F794E9340794AE71BA61B8360A4EB0C
:104B50000209774B1432B9FA89F97648A4EB0308B5
:104B6000754BA21A4FEA59199C4218BF8C4203F1A7
:104B70001803B2FA82F2B8FA88F80CBF01210021BA
:104B80005209B7FA87F79C4208BF41F00101183378
:104B90004FEA5818A4EB000B9C4208BF41F00101FA
:104BA00018337F09B6FA86F69C4208BF41F001012E
:104BB0001833143076099C4208BF41F001011833C4
:104BC000BBFA8BFB9C4208BF41F0010118334FEA4E
:104BD0005B1B9C4208BF41F0010103F556739C42E8
:104BE00008BF41F0010118339C4208BF41F00101A8
:104BF00018339C4208BF41F0010118339C4208BFA2
:104C000041F0010118339C4208BF41F00101183303
:104C10009C4208BF41F0010118339C4208BF41F09B
:104C2000010118339C4208BF41F00101434B49EA9E
:104C30000101A4EB030A231A1143BAFA8AFAB3FA60
:104C400083F348EA01014FEA5A1A5B094AEA010173
:104C50000193394331435BEA01017FF4CCAE002B71
:104C60007FF4C9AE0AE00023A96ED5E918026B6093
:104C7000036051600023EB662B676B670023012202
:104C800018466B6585F8352003B0BDE8F08F20220B
:104C900003236A6585F83530012003B0BDE8F08F45
:104CA0002748F040C0073FF52AAF2AE7B2F5005F7A
:104CB00012D0022905D903297FF439AFC2017FF54B
:104CC00036AF402201236A6585F83530E4E7743851
:104CD00003287FF614AF14E703293FF628AF01A29B
:104CE00052F821F0C34C0008BD4C0008C34C00082A
:104CF000F54C0008B0F1C07F7FF419AFE1E7114A2D
:104D0000114922449200A0E64FF0100E4AE64022DC
:104D100003236A6585F83530BEE700BF3F8010FE8B
:104D200010000240585402586C540258085402585B
:104D3000305402588054025828000240445402580B
:104D40003F00C0C33F8200104009024070B50446D6
:104D500000F00AFE002C6BD094F83530022B62D1A3
:104D600025680646A24B9D4264D018339D4261D00F
:104D700018339D4200F0F18018339D4200F01881F5
:104D800018339D4200F0238118339D4200F0FD80CE
:104D900018339D4200F0388118339D4200F047815E
:104DA00003F556739D4200F0558118339D4200F083
:104DB000608118339D4200F06B8118339D4200F0F2
:104DC000698118339D4200F0678118339D4200F0DD
:104DD000658118339D4200F0658118339D4200F0D3
:104DE0005F812B68834A23F00E0395422B6014D019
:104DF000814B9D4211D014339D420ED014339D42FD
:104E00000BD014339D4208D014339D4205D0143387
:104E10009D4202D014339D4219D1226E136823F4AF
:104E20008073136013E080220023626584F83430BD
:104E3000012070BD2B68226E23F01E032B606B696E
:104E400023F080036B61136823F4807313602B6875
:104E500023F001032B6005E000F086FD831B052B8A
:104E600000F28A802B68DB07F6D423686049E26D84
:104E70008B42A06D02F01F025ED018318B425BD0D6
:104E800018318B4258D018318B4255D018318B4293
:104E900052D018318B424FD018318B424CD0183140
:104EA0008B4249D001F556718B4245D018318B4267
:104EB00042D018318B423FD018318B423CD0183150
:104EC0008B4239D018318B4236D018318B4233D0D7
:104ED00018318B4230D001219140474A416045480A
:104EE0004649834218BF934200F13C000CBF0122A7
:104EF00000228B4208BF42F001022831834208BFE2
:104F000042F0010228308B4208BF42F001022831F2
:104F1000834208BF42F001028B4208BF42F0010207
:104F20006AB9374A93420AD000230122184684F80E
:104F3000352084F8343070BD3F2393408360E36EA6
:104F4000D4E919215160002BEED01A68D4E91C1065
:104F500022F480721A604860E6E72A4B1A6C22F04D
:104F60001E021A645A6D22F080025A65226E13687E
:104F700023F4807313606AE7202103220023616514
:104F800084F8343084F8352052E71E4BD3F888205B
:104F900022F01E02C3F88820D3F89C2022F0800261
:104FA000C3F89C20226E136823F4807313604EE7CD
:104FB000144B9A6D22F01E029A65DA6E22F080027E
:104FC000DA66226E136823F4807313603FE70D4B9B
:104FD0001A6F22F01E021A67D3F8842022F0800292
:104FE000C3F88420226E136823F4807313602EE7C5
:104FF00010000240085402581C5402583054025801
:105000009454025800000240274BD3F8A02022F00D
:105010001E02C3F8A020D3F8B42022F08002C3F807
:10502000B420226E136823F4807313600FE71E4BC5
:10503000D3F8B82022F01E02C3F8B820D3F8CC2051
:1050400022F08002C3F8CC20226E136823F4807310
:105050001360FCE6154B1A6922F01E021A615A6AA7
:1050600022F080025A62226E136823F48073136068
:10507000EDE60E4B9A6A22F01E029A62DA6B22F07B
:105080008002DA63226E136823F480731360DEE615
:10509000064B63E7054B8CE7044B99E7034B75E739
:1050A000024BC5E7014BB0E700000240000402409C
:1050B000002800F0968038B590F83530022B40F08B
:1050C00083800368484A934200F0828018329342FA
:1050D0007ED0183293427BD01832934278D0183267
:1050E000934275D01832934272D0183293426FD0E7
:1050F000183293426CD002F55672934268D018323F
:10510000934265D01832934262D0183293425FD0F6
:10511000183293425CD01832934259D018329342DD
:1051200056D01832934253D0304A314D1968AB42B1
:1051300018BF93422F4C21F00E0105F13C050CBF26
:10514000012200221960A34208BF42F0010219683F
:105150002834AB4208BF42F0010221F00101A34212
:1051600008BF42F0010214341960A34208BF42F0A4
:10517000010221498B4208BF42F0010212B91F4AC5
:10518000934217D10123846DD0E917152A6801F0E5
:105190001F0122F480728B402A606360C36ED0E9E5
:1051A0001921516033B11A68D0E91C1422F48072BD
:1051B0001A604C6001210022036D80F8351080F8E0
:1051C000342063B198470AE080234365012038BD4D
:1051D000042280F835201A6822F001021A600020AB
:1051E00038BD0120704700BF100002401C54025817
:1051F00008540258305402588054025894540258AB
:105200002DE9F0410022464B82B0846D06461D68B0
:1052100001920368434A44482768934218BF834277
:1052200021680CBF0120002000F0868018329342D4
:1052300000F07C821832934200F078821832934258
:1052400000F085821832934200F081821832934236
:1052500000F07D821832934200F0798202F5567296
:10526000934200F074821832934200F07082183238
:10527000934200F06C821832934200F06882183238
:10528000934200F064821832934200F06082183238
:10529000934200F05C821832934200F05882234A15
:1052A0002348834218BF934200F114000CBF01222F
:1052B0000022834208BF42F001021430834208BF3B
:1052C00042F001021430834208BF42F00102143060
:1052D000834208BF42F001021430834208BF42F00B
:1052E000010212B9134A934216D1F06D04251A68CF
:1052F00000F01F0085400D4200F08382570740F107
:1053000080821004656040F1AF82D10300F1B28267
:10531000B36C002B40F0F48102B0BDE8F08100BF17
:1053200020000020280002401000024008540258CB
:105330001C54025894540258D6F85CE04FF0080C04
:105340000EF01F020CFA02F10F4200F0DE81D3F8DA
:1053500000C01CF0040F0AD0D3F800C02CF0040CDD
:10536000C3F800C0A160716D41F00101716527FAB9
:1053700002F1C9075BD500284FD1A249DFF898C2D6
:10538000634518BF8B420CF1180C0CBF01210021A2
:10539000634508BF41F001010CF1180C634508BFDB
:1053A00041F001010CF1180C634508BF41F0010107
:1053B0000CF1180C634508BF41F001010CF5567C57
:1053C000634508BF41F001010CF1180C634508BFAB
:1053D00041F001010CF1180C634508BF41F00101D7
:1053E0000CF1180C634508BF41F001010CF1180CD9
:1053F000634508BF41F001010CF1180C634508BF7B
:1054000041F001010CF1180C634508BF41F00101A6
:1054100019B97D498B4240F0E3815969090606D5E7
:1054200001219140A160716D41F00201716504217B
:10543000914039425FD0DFF8CCC1634551D000289C
:105440004FD10CF1300CDFF8D081434518BF6345D4
:1054500008F130080CBF4FF0010C4FF0000C434531
:1054600008BF4CF0010C08F11808434508BF4CF088
:10547000010C08F11808434508BF4CF0010C08F571
:105480005678434508BF4CF0010C08F11808434515
:1054900008BF4CF0010C08F11808434508BF4CF058
:1054A000010C08F11808434508BF4CF0010C08F145
:1054B0001808434508BF4CF0010C08F11808434593
:1054C00008BF4CF0010C08F11808434508BF4CF028
:1054D000010CBCF1000F04D1DFF82CC1634540F092
:1054E0008581D3F800C01CF0020F04D0A160716D5B
:1054F00041F004017165102101FA02F23A425BD0D9
:1055000040498B4242D0002840D118313F48834265
:1055100018BF8B4200F118000CBF0121002183420B
:1055200008BF41F001011830834208BF41F001017A
:105530001830834208BF41F0010100F556708342E4
:1055400008BF41F001011830834208BF41F001015A
:105550001830834208BF41F001011830834208BF70
:1055600041F001011830834208BF41F001011830B9
:10557000834208BF41F001011830834208BF41F067
:10558000010119B920498B4240F037811968C1F3F4
:10559000C00189B1A2601A68500300F1E7801A685F
:1055A000D20503D41A6822F008021A60336C1BB1CA
:1055B00030469847D6F85CE00EF01F012020884066
:1055C000384273D03268124B124FBA4218BF9A4217
:1055D00007F118070CBF01230023BA4208BF43F0AC
:1055E00001031837BA4208BF43F001031837BA4223
:1055F00008BF43F001031837BA4208BF43F0010364
:1056000018370BE040000240B8040240700002402E
:10561000100002402800024058000240BA4208BF71
:1056200043F001031837BA4208BF43F0010307F5FE
:105630005677BA4208BF43F001031837BA4208BF91
:1056400043F001031837BA4208BF43F0010318378B
:10565000BA4208BF43F001031837BA4208BF43F00B
:1056600001031837BA4208BF43F001031837BA42A2
:1056700008BF43F001031BB9894B9A4240F0D18027
:105680001368C3F300138BB1A06096F83530042B78
:10569000136874D013F4802F136800F08A801F03FE
:1056A00040F19580F36B0BB130469847736D002B3A
:1056B0003FF432AE736DDC071ED53268042186F8E4
:1056C000351078491368A1FB055123F00103890ABD
:1056D000136002E01368D80704D5019B01338B42A5
:1056E0000193F7D91368DB074CBF0323012386F826
:1056F0003530002386F83430F36C002B3FF40CAEC9
:10570000304602B0BDE8F041184727FA02F1C90758
:105710003FF583AE042191400F427FF4E2AE1021A9
:1057200001FA02F217427FF431AF45E7D6F85CE0A8
:105730004FF0080C0EF01F020CFA02F10F427FF43A
:1057400006AE27FA02F1C9073FF567AE6FE6D6F855
:105750005CE008210EF01F0291400F427FF4F7AD8C
:1057600027FA02F1C9073FF558AE60E61B68190336
:105770007FF51CAFB36C002B7FF41AAF1CE723F04E
:1057800016031360536923F080035361336C1BB31A
:10579000136823F0080313603F23012000228B408D
:1057A000A360336D86F8350086F83420002BA7D12E
:1057B000B2E513F480737FF475AF116821F0100126
:1057C0001160012286F8343086F835206AE7736C60
:1057D000002B7FF469AF69E7B36C002BD8D1DBE70E
:1057E00019680421914039423FF485AE19681021AF
:1057F00001FA02F217423FF4DFAE1968C1F38001EB
:10580000C7E6022585400D420FD097070DD511043C
:10581000656034D5D7033ED4736C002B7FF470AF32
:105820007AE51368C3F340032DE7082585400D4250
:105830003FF472AD15077FF56FAD1A68002122F0B5
:105840000E021A600123F26C03FA00F060607365C7
:1058500086F8341086F83530002A3FF45DAD3046C6
:1058600002B0BDE8F0411047920603D41A6822F056
:1058700004021A60336C002B7FF442AF4CE512F047
:10588000200208D11968012021F00A01196086F868
:10589000350086F83420F36B002B7FF431AF3BE505
:1058A000B8040240B5814E1B38B5104CE36813F0C4
:1058B000040FE36805D103F00703181A18BF01208D
:1058C00038BD23F007030343E36000F04DF80546BD
:1058D00005E000F049F8401BB0F57A7F04D8636812
:1058E0009B04F6D5002038BD012038BD0048025881
:1058F00010B50320124CFCF729FEFDF79BF9114B64
:1059000011499A699B69C2F3032203F00F038A5C71
:10591000CB5C02F01F020D4903F01F03D04020FAB8
:1059200003F308600F202360FCF7FCF910B1012499
:10593000204610BD0446FCF7E3F9204610BD00BF29
:105940001C0000200044025844A800082000002049
:10595000034A044B11681B780B441360704700BF67
:10596000200C002014000020014B1868704700BF75
:10597000200C002038B50446FFF7F6FF0546631CEF
:1059800002D0044B1B781C44FFF7EEFF401BA042E3
:10599000FAD338BD14000020704700BF704700BF25
:1059A000F0B5D1E901740E690D68002F33D126439B
:1059B00046EA8546D1E9065425434C6925430C6ADD
:1059C00045EA0465846E04FB03F3D0F88440C8689C
:1059D00044F8236004EB830445EA0040104D606006
:1059E000CB68EB5CB3B14FF0000C907804EB0C0E7D
:1059F000D7780CF1040C000416785378043240EA8E
:105A00000760304340EA0320CEF80800C868285CED
:105A10006045EAD8F0BD2E43264346F08046C9E7EC
:105A20000CA80008704700BF704700BF704700BF58
:105A3000704700BF704700BF704700BF704700BF8E
:105A4000704700BF704700BF704700BF704700BF7E
:105A5000704700BF704700BF704700BF2DE9F04F8F
:105A600099B004464C225B4905A8FAF7ABFC002C20
:105A70007AD02368584A934200F0A88094F898207E
:105A800002F0FF01002A73D09A6922F010029A6195
:105A9000FFF76AFF054604E0FFF766FF401B0A2890
:105AA00059D823689A691107F6D49A6942F001021D
:105AB0009A61FFF759FF054604E0FFF755FF401BC9
:105AC0000A2848D823689A69D207F6D59A6942F01D
:105AD00002029A61227C012A9A690CBF22F04002DC
